S020000048656C6C6F576F726C645F50686F746F7265736973746F722E7372656324
S113000035C1000050C100004EC100004CC10000C9
S11300104AC1000048C1000046C1000044C10000BC
S113002042C1000040C100003EC100003CC10000CC
S11300303AC1000039C1000036C1000034C10000DB
S113004032C1000030C100002EC100002CC10000EC
S11300502AC1000028C1000026C1000024C10000FC
S113006022C1000020C100001EC100001CC100000C
S11300701AC1000018C1000016C1000014C100001C
S113008012C1000010C100000EC1000000000000F9
S11300900000005F00000007000700147F147F14B5
S11300A0242A7F2A122313086462364955225000F9
S11300B005030000001C2241000041221C00082A04
S11300C01C2A0808083E08080050300000080808E8
S11300D00808006060000020100804023E514945F1
S11300E03E00427F400042615149462141454B3127
S11300F01814127F1027454545393C4A49493001B7
S1130100710905033649494936064949291E00360D
S1130110360000005636000000081422411414145E
S1130120141441221408000201510906324979418C
S11301303E7E1111117E086B3F68083E4141412209
S11301407F4141221C7F494949417F090901013E00
S1130150414151327F0808087F00417F410020401F
S1130160413F017F081422417F404040407F020408
S1130170027F7F0408107F3E4141413E7F09090907
S1130180063E4151215E7F091929464649494931B4
S113019001017F01013F4040403F1F2040201F7F5D
S11301A02018207F63140814630304780403615146
S11301B049454300007F4141020408102041417F2A
S11301C000000402010204404040404000010204D7
S11301D00020545454787F484444383844444420DC
S11301E0384444487F3854545418087E090102089E
S11301F01454543C7F0804047800447D400020409B
S1130200443D00007F10284400417F40007C0418D6
S113021004787C0804047838444444387C14141466
S113022008081414187C7C08040408485454542006
S1130230043F4440203C4040207C1C2040201C3C87
S11302404030403C44281028440C5050503C4464F6
S1130250544C44000836410000007F000000413641
S1130260080008082A1C08081C2A080811241FBEB4
S1130270CFEFD0E4DEBFCDBF11E0A0E0B1E0E4E910
S1130280F7E000E00BBF02C007900D92A433B10762
S1130290D9F721E0A4E3B1E001C01D92A034B20774
S11302A0E1F71AD275C2ACCE1F920F920FB60F921D
S11302B011248F939F93AF93BF93809138019091B2
S11302C03901A0913A01B0913B010197A109B1090B
S11302D08093380190933901A0933A01B0933B0184
S11302E0892B8A2B8B2B99F481E080933C0180919C
S11302F0020190910301A0910401B0910501809342
S1130300380190933901A0933A01B0933B01BF9116
S1130310AF919F918F910F900FBE0F901F901895E2
S11303208FEF84B917B8289A0895181619066CF433
S113033020E030E0EFE9FFE03197F1F700C0000082
S11303402F5F3F4F82179307A9F7089580E58CBD6F
S11303508DB581608DBD08958EBD0DB407FEFDCFB2
S11303608EB508952998F8DF299A0895CF93C82F58
S1130370892FF2DF8C2FF0DFCF9108950F931F9315
S1130380CF93DF93082F192FEB018CE2EBDF20973B
S113039059F0912F9EBD0DB407FEFDCF0EBD0DB4D7
S11303A007FEFDCF2197B1F7DF91CF911F910F91F8
S11303B00895289881E090E0B8DF289A86E990E0D3
S11303C0B4CF0895F6DF81E1CDDF86E990E0ADDFBB
S11303D08AE3C8DF85E0C0DF89E2C4CF08950F93C4
S11303E01F93CF93DF93082FD62F142FC22F8AE2A7
S11303F0B9DF802F90E0BADF812F90E0B7DF8BE286
S1130400B1DF8D2F90E0B2DF8C2F90E0AFDFDF9172
S1130410CF911F910F9108952FE94FE760E080E09D
S1130420DEDF8CE29FDF80E090EA1EBC0DB407FEA5
S1130430FDCF0197D1F70895EF92FF920F931F9389
S1130440CF93DF93E82EF62EC42FD22FC8DFCE1918
S1130450CF5FDF19DF5FCD9FB0011124C8018EDFAC
S1130460DF91CF911F910F91FF90EF9008958091AC
S11304703D018F5F80933D01853138F080913E01CD
S11304808F5F80933E0110923D0180913E01843143
S113049010F010923E010895CF93843B910541F0F2
S11304A08E3021E0920731F08A35910529F406C097
S11304B0C0EC05C0C0EA03C0C0E001C0C0E686E3EA
S11304C051DF8C2F49DFCF9108959F92AF92BF9255
S11304D0CF92DF92EF92FF920F931F93CF93DF930C
S11304E0C82F862F642FB22EC32E26E0240F44E09B
S11304F0480F75DF8CE236DF8C2F90E080977C010B
S1130500EE0CFF1CEE0CFF1C8E0D9F1D9C0124574E
S11305103F4F79010F2EF7E0DF2EF02DD1E0992423
S11305209A94AA24AA9413C0F80184918D2319F0F3
S11305308B2D9C2D02C0892D9A2D18DFC1500F5F81
S11305401F4FC111F1CFDD0FDA94DD2019F08701BF
S1130550C5E0EACFDF91CF911F910F91FF90EF900B
S1130560DF90CF90BF90AF909F9008959B014091F2
S11305703E01440F440F440F90913D01692F660FD3
S1130580960F692F660FA1DF72CF08950F931F9303
S1130590CF93DF93EC018881882339F08B01219676
S11305A0B801E4DF89918111FBCFDF91CF911F91D5
S11305B00F910895CF93DF93CDB7DEB728970FB689
S11305C0F894DEBF0FBECDBF4AE0BE016F5F7F4F20
S11305D0ACD060E070E0CE010196D8DF28960FB66B
S11305E0F894DEBF0FBECDBFDF91CF910895EAE747
S11305F0F0E08081806E80830895CF9380913F01E5
S1130600813051F018F08230B1F164C0109237019A
S113061081E080933F015EC02091780030917900A1
S113062030933601209335012093340180910001E9
S113063090910101969587952817390720F082E05B
S113064080933F0147C0C1E0C0933F0118B8C093F5
S11306503D0189E080933E0160E070E086E091E036
S113066095DFC0933D018CE080933E01809134017D
S113067090E0A0DF2FC08FEF88B981E080933D0127
S113068089E080933E0160E070E08BE191E07EDFE1
S113069080913401843698F491E090933D01CCE04C
S11306A0C0933E0190E086DF83E080933D01C093D8
S11306B03E016FEF7FEF80E391E068DF08C091E0D7
S11306C090933D019CE090933E0190E073DF81E0C4
S11306D080933F01CF91089523DE38DE73DE9CDEE4
S11306E00FEF1FEF2FE94FE760E080E0A5DE8AE51A
S11306F090E0D2DE00EE1FEF24E144E161E081E00E
S11307009BDE81E080933D0180933E0160E070E0D8
S113071082E391E03BDF11B88FEF82B987B918B853
S113072010923F0164DF69DFFECFBB274A3031F40A
S1130730992322F4BDE2909581959F4F01C0BB2778
S1130740FB015527AA27880F991FAA1FA41710F089
S1130750A41B83955051B9F7A05DAA3308F0A95D95
S1130760A193009779F7B111B1931192CB0100C015
S1130770DC01FC01672F71917723E1F7329704C004
S11307807C916D9370836291AE17BF07C8F308958F
S1070790F894FFCF07
S113079496000100000049742773206461726B2081
S11307A46F75747369646520202000576561722035
S11307B4796F75722073756E73637265656E21004B
S10707C430004100BC
S9030000FC
