:1000000035C1000050C100004EC100004CC10000CD
:100010004AC1000048C1000046C1000044C10000C0
:1000200042C1000040C100003EC100003CC10000D0
:100030003AC1000038C1000036C1000034C10000E0
:1000400032C1000030C100002EC100002CC10000F0
:100050002AC1000028C1000026C1000024C1000000
:1000600022C1000020C100001EC100001CC1000010
:100070001AC1000018C1000016C1000014C1000020
:1000800012C1000010C100000EC1000000000000FD
:100090000000005F00000007000700147F147F14B9
:1000A000122A7F2A246264081323502255493600FD
:1000B000050300000041221C00001C224100082A08
:1000C0001C2A0808083E08080000305000080808EC
:1000D0000808006060000002040810203E454951F5
:1000E0003E00407F42004649516142314B4541212B
:1000F000107F12141839454545273049494A3C03B9
:100100000509710136494949361E29494906003613
:100110003600000000365600412214080014141462
:100120001414000814224106095101023E41794984
:10013000327E1111117E364949497F224141413EAB
:100140001C2241417F414949497F010109097F3210
:100150005141413E7F0808087F00417F4100013F37
:10016000414020412214087F404040407F7F0204EC
:10017000027F7F1008047F3E4141413E0609090984
:100180007F5E2151413E462919097F31494949463F
:1001900001017F01013F4040403F1F2040201F7F61
:1001A0002018207F63140814630304780403434574
:1001B00049516141417F0000201008040200007F86
:1001C0004141040201020440404040400004020159
:1001D000007854545420384444487F2044444438E0
:1001E0007F4444483818545454380201097E083C6E
:1001F00054541408780404087F00407D4400003DF6
:100200004440204428107F0000407F4100780418BB
:10021000047C780404087C384444443808141414DA
:100220007C7C18141408080404087C205454544896
:100230002040443F047C2040403C1C2040201C3C8B
:100240004030403C44281028443C5050500C444C12
:10025000546444004136080000007F000000083666
:100260004100081C2A080808082A1C0811241FBE7F
:10027000CFEFD0E4DEBFCDBF11E0A0E0B1E0E0E31E
:10028000F7E000E00BBF02C007900D92A231B1076A
:10029000D9F721E0A2E1B1E001C01D92A631B20779
:1002A000E1F7AAD143C2ACCE8FEF84B917B8289A30
:1002B0000895181619066CF420E030E0E9EFF0E03C
:1002C0003197F1F700C000002F5F3F4F821793076F
:1002D000A9F7089580E58CBD8DB581608DBD089529
:1002E0008EBD0DB407FEFDCF8EB508952998F8DFB9
:1002F000299A0895CF93C82F892FF2DF8C2FF0DF32
:10030000CF910895289881E090E0D3DF289A86E97C
:1003100090E0CFCF0895F6DF81E1E8DF86E990E055
:10032000C8DF8AE3E3DF85E0DBDF89E2DFCF089522
:10033000CF92DF92EF92FF920F931F93CF93DF93B1
:100340006C018B017A01E9018AE2D0DFC601D2DFBC
:10035000C701D0DF8BE2CADFC801CCDFCE01CADF24
:10036000DF91CF911F910F91FF90EF90DF90CF9091
:1003700008952FE331E04FEE50E060E070E080E060
:1003800090E0D6DF8CE2B2DF80E098E5A2E0B0E05A
:100390001EBC0DB407FEFDCF0197A109B109C1F73D
:1003A0000895809112019091130101979093130188
:1003B0008093120188976CF080911401909115013F
:1003C00001969093150180931401109213011092DD
:1003D00012018091140190911501889724F01092D8
:1003E0001501109214010895CF93843B910541F0BB
:1003F0008E3021E0920731F08A35910529F406C04C
:10040000C0EC05C0C0EA03C0C0E001C0C0E686E39E
:100410006DDF8C2F65DFCF9108958F929F92AF9201
:10042000BF92CF92DF92EF92FF920F931F93CF93E1
:10043000DF93E82ECB01BA01A22EB32E9A012A5FD8
:100440003F4FAC014C5F5F4F73DF8CE24FDF8E2D6F
:1004500090E07C01EE0CFF1CEE0CFF1CE80EF91E78
:100460000F2EF7E0CF2ED12CF02D01E010E080EA26
:10047000E81AF108812C912C1BC0F701EC0FFD1F2D
:10048000E457FF4FE491F0E0E023F123EF2B19F064
:100490008A2D9B2D02C0882D992D2CDF2196C530E9
:1004A000D10559F7000F111F81E0C81AD10819F0C2
:1004B000C0E0D0E0E2CFDF91CF911F910F91FF908C
:1004C000EF90DF90CF90BF90AF909F908F90089566
:1004D0009B014091140150911501440F551F440F89
:1004E000551F440F551FE0911201F0911301BF01F8
:1004F000660F771FE60FF71FBF01660F771F8DDFAF
:1005000050CF08950F931F93CF93DF93EC01888111
:10051000882339F08B012196B801DADF89918111A6
:10052000FBCFDF91CF911F910F910895CF93DF9370
:10053000CDB7DEB728970FB6F894DEBF0FBECDBF9C
:100540004AE0BE016F5F7F4FBED06FEF7FEFCE01FD
:100550000196D8DF28960FB6F894DEBF0FBECDBF48
:10056000DF91CF910895ECEBF0E0108294EA908354
:1005700090819923ECF79091B900987F983091F48D
:100580008093BB0084E88093BC00ECEBF0E08081BA
:100590008823ECF79091B900987F81E0983119F4A5
:1005A00080E0089581E008958093BB0084E8809303
:1005B000BC00ECEBF0E080818823ECF79091B9006F
:1005C000987F81E0983209F480E0089584EC80936C
:1005D000BC00ECEBF0E080818823ECF78091BB005D
:1005E000089584E88093BC00ECEBF0E080818823E0
:1005F000ECF78091BB00089557DE6CDE8CDEB9DE2F
:100600008EE091E0F1DE84E190E09093130180931D
:10061000120189E090E090931501809314016FE13D
:1006200078EF80E091E06EDF17B88FEF88B989E34B
:100630008093B8000F2EFCEBEF2EF12CF02D14E977
:100640000F2EFAE0AF2EB12CF02D0F2EFCE0CF2EA6
:10065000D12CF02D8CE587DF80E0A6DFF701108339
:1006600083EC99E00197F1F700C000008CE57BDF97
:1006700083E09ADF80E098DFF701108383EC99E054
:100680000197F1F700C000008DE56DDF9FDFC82FF7
:10069000D0E0A7DFF7011083B0921301A0921201FE
:1006A000D0921501C09214019E01280F311DC9017D
:1006B0003DDF3FE78AE196E0315080409040E1F72E
:1006C00000C00000C7CFBB274A3031F4992322F481
:1006D000BDE2909581959F4F01C0BB27FB01552737
:1006E000AA27880F991FAA1FA41710F0A41B83958F
:1006F0005051B9F7A05DAA3308F0A95DA193009706
:1007000079F7B111B1931192CB0100C0DC01FC016A
:10071000672F71917723E1F7329704C07C916D9335
:1007200070836291AE17BF07C8F30895F894FFCFA6
:10073000546869732069732048756D6964697479B8
:020740000000B7
:00000001FF
