S011000054657374546F7563682E7372656370
S113000035C1000050C100004EC100004CC10000C9
S11300104AC1000048C1000046C1000044C10000BC
S113002042C1000040C100003EC100003CC10000CC
S11300303AC1000038C1000036C1000034C10000DC
S113004032C1000030C100002EC100002CC10000EC
S11300502AC1000028C1000026C1000024C10000FC
S113006022C1000020C100001EC100001CC100000C
S11300701AC1000018C1000016C1000014C100001C
S113008012C1000010C100000EC1000000000000F9
S11300900000005F00000007000700147F147F14B5
S11300A0122A7F2A246264081323502255493600F9
S11300B0050300000041221C00001C224100082A04
S11300C01C2A0808083E08080000305000080808E8
S11300D00808006060000002040810203E454951F1
S11300E03E00407F42004649516142314B45412127
S11300F0107F12141839454545273049494A3C03B5
S11301000509710136494949361E2949490600360F
S1130110360000000036560041221408001414145E
S11301201414000814224106095101023E41794980
S1130130327E1111117E364949497F224141413EA7
S11301401C2241417F414949497F010109097F320C
S11301505141413E7F0808087F00417F4100013F33
S1130160414020412214087F404040407F7F0204E8
S1130170027F7F1008047F3E4141413E0609090980
S11301807F5E2151413E462919097F31494949463B
S113019001017F01013F4040403F1F2040201F7F5D
S11301A02018207F63140814630304780403434570
S11301B049516141417F0000201008040200007F82
S11301C04141040201020440404040400004020155
S11301D0007854545420384444487F2044444438DC
S11301E07F4444483818545454380201097E083C6A
S11301F054541408780404087F00407D4400003DF2
S11302004440204428107F0000407F4100780418B7
S1130210047C780404087C384444443808141414D6
S11302207C7C18141408080404087C205454544892
S11302302040443F047C2040403C1C2040201C3C87
S11302404030403C44281028443C5050500C444C0E
S1130250546444004136080000007F000000083662
S11302604100081C2A080808082A1C0811241FBE7B
S1130270CFEFD0E4DEBFCDBF11E0A0E0B1E0ECE50C
S1130280FFE000E00BBF02C007900D92A431B1075C
S1130290D9F721E0A4E1B1E001C01D92A831B20771
S11302A0E1F7A5D359C6ACCE8FEF84B917B8289A15
S11302B00895181619066CF420E030E0EFE9FFE029
S11302C03197F1F700C000002F5F3F4F821793076B
S11302D0A9F708954F925F926F927F928F929F92A7
S11302E0AF92BF92CF92DF92EF92FF922B013C012B
S11302F0672B682B692B49F1E0E1F0E0C12CD12C8C
S11303007601812C912C5401689497F8C828D92837
S1130310EA28FB28A7019601C701B601C2D54616F3
S113032057066806790650F4D501C4018095909566
S1130330A095B095C822D922EA22FB22B694A794AC
S113034097948794319711F703C0C12CD12C76016F
S1130350C701B601FF90EF90DF90CF90BF90AF90B0
S11303609F908F907F906F905F904F90089580E55D
S11303708CBD8DB581608DBD08958EBD0DB407FE15
S1130380FDCF8EB508952998F8DF299A0895CF9363
S1130390C82F892FF2DF8C2FF0DFCF9108950F93B0
S11303A01F93CF93DF93082F192FEB018CE2EBDF20
S11303B0209759F0912F9EBD0DB407FEFDCF0EBDC1
S11303C00DB407FEFDCF2197B1F7DF91CF911F91B7
S11303D00F910895289881E090E06BDF289A86E9D0
S11303E090E067CF0895F6DF81E1CDDF86E990E004
S11303F060DF8AE3C8DF85E0C0DF89E2C4CF089507
S1130400CF92DF92EF92FF920F931F93CF93DF93DC
S11304106C018B017A01E9018AE2B5DFC601B7DF1D
S1130420C701B5DF8BE2AFDFC801B1DFCE01AFDFBB
S1130430DF91CF911F910F91FF90EF90DF90CF90BC
S113044008952FE331E04FEE50E060E070E080E08B
S113045090E0D6DF8CE297DF80E098E5A2E0B0E0A0
S11304601EBC0DB407FEFDCF0197A109B109C1F768
S11304700895EF92FF920F931F93CF93DF938B0115
S1130480EA0179019A01AC01BBDFBE01601B710B6B
S11304906F5F7F4FC70183DFDF91CF911F910F9172
S11304A0FF90EF9008953F924F925F926F927F92E8
S11304B08F929F92AF92BF92CF92DF92EF92FF9270
S11304C00F931F93CF93DF93449F2001459F500CBC
S11304D0500C1124052C000C6608770855238CF168
S11304E049015A01362E6C01C0E0D0E0CC9FC00116
S11304F0CD9F900D900D1124092E000CAA0BBB0B5F
S1130500A3019201281B390B4A0B5B0BCA01B901E9
S1130510E1DEE62EE30CF12C032D061B10E0940122
S1130520A701B801C6018C0F9D1FA3DF9401A70189
S1130530B801C6018C1B9D0B9CDF2196AC16BD0631
S1130540ACF6DF91CF911F910F91FF90EF90DF9068
S1130550CF90BF90AF909F908F907F906F905F905F
S11305604F903F9008958091140190911501019648
S1130570909315018093140188976CF08091160173
S11305809091170101969093170180931601109290
S1130590150110921401809116019091170188970A
S11305A024F010921701109216010895CF93843B02
S11305B0910541F08E3021E0920731F08A359105A2
S11305C029F406C0C0EC05C0C0EA03C0C0E001C005
S11305D0C0E686E3D8DE8C2FD0DECF9108958F92CB
S11305E09F92AF92BF92CF92DF92EF92FF920F93BE
S11305F01F93CF93DF93E82ECB01BA01A22EB32E23
S11306009A012A5F3F4FAC014C5F5F4FF9DE8CE2E9
S1130610BADE8E2D90E07C01EE0CFF1CEE0CFF1C6C
S1130620E80EF91E0F2EF7E0CF2ED12CF02D01E0AD
S113063010E080EAE81AF108812C912C1BC0F70124
S1130640EC0FFD1FE457FF4FE491F0E0E023F123AA
S1130650EF2B19F08A2D9B2D02C0882D992D97DE42
S11306602196C530D10559F7000F111F81E0C81A32
S1130670D10819F0C0E0D0E0E2CFDF91CF911F9113
S11306800F91FF90EF90DF90CF90BF90AF909F902D
S11306908F9008959B014091160150911701440FCA
S11306A0551F440F551F440F551FE0911401F0913D
S11306B01501BF01660F771FE60FF71FBF01660F15
S11306C0771F8DDF50CF08950F931F93CF93DF9340
S11306D0EC018881882339F08B012196B801DADF97
S11306E089918111FBCFDF91CF911F910F910895D3
S11306F0CF93DF93CDB7DEB728970FB6F894DEBF5C
S11307000FBECDBF4AE0BE016F5F7F4FF2D36FEFE4
S11307107FEFCE010196D8DF28960FB6F894DEBF9E
S11307200FBECDBFDF91CF91089581B1897F81B98B
S113073082B1897F82B981B1896081B91398109A95
S1130740EAE7F0E08081876C808381E680937C0017
S11307508FE193E00197F1F700C000002091780049
S11307608091790090E0982F8827820F911D00973F
S113077079F09C01205A3F40A9E0BCE8A1D30024B1
S1130780880F991F001C880F991F001C892F902D1A
S1130790089581B1867F81B982B1867F82B981B1A2
S11307A0866081B91198129A87EC80937A0080E66A
S11307B080937C008FE193E00197F1F700C0000083
S11307C0209178008091790090E0982F8827820FFB
S11307D0911D009789F080549F419C01369527957F
S11307E0A5E7BAED6DD30024880F991F001C880F6C
S11307F0991F001C892F902D0895AF92BF92CF921C
S1130800DF92EF92FF921F93CF93DF930A9A12988D
S11308100B9A139A81B18C7F81B982B18C7F82B992
S11308204CE750E081E4DA018C93EAE7F0E0808160
S113083080648083CFE1D3E02197F1F700C000000A
S113084028E730E0D901CC91AC2EB12CA9E7B0E077
S11308501C9180E4EA018883808180648083EFE1D5
S1130860F3E03197F1F700C00000E90188816C9151
S113087070E0762F6627680F711D072E000C880B19
S1130880990B20D26B017C01612F70E0762F6627D3
S1130890E501C60FD71FBE01DD0F880B990B12D2DD
S11308A09B01AC01C701B60177D120E030E040E8FC
S11308B05FE30DD16B017C0138DFBC0180E090E087
S11308C0FFD1A70196018AD220E030E045EA53E443
S11308D085D220E030E040E85AE380D2C5D1CB0194
S11308E0DF91CF911F91FF90EF90DF90CF90BF9059
S11308F0AF900895AF92BF92CF92DF92EF92FF92A2
S11309001F93CF93DF930A9A12980B9A139A81B18B
S11309108C7F81B982B18C7F82B94CE750E081E44D
S1130920DA018C93EAE7F0E0808180648083CFE190
S1130930D3E02197F1F700C0000028E730E0D901A7
S1130940CC91AC2EB12CA9E7B0E01C9180E4EA0173
S11309508883808180648083EFE1F3E03197F1F74D
S113096000C00000E90188816C9170E0762F662751
S1130970680F711D072E000C880B990BA3D16B0116
S11309807C01612F70E0762F6627E501C60FD71F23
S1130990BE01DD0F880B990B95D19B01AC01C701FA
S11309A0B601FAD020E030E040E85FE390D06B017C
S11309B07C01EFDEBC0180E090E082D1A7019601CA
S11309C00DD220E030E045EA53E408D220E030E0E4
S11309D040E85AE303D248D1CB01DF91CF911F9174
S11309E0FF90EF90DF90CF90BF90AF9008955CDCC4
S11309F0BEDCF9DC26DD8EE091E0D8DD86E190E016
S1130A00909315018093140190931701809316011C
S1130A106FE178EF80E091E057DEC1E0D0E06894C8
S1130A20AA24A1F8B12C6894CC24C2F8D12C0F2E9E
S1130A30F5E0EF2EF12CF02DE0DE0A978F3D934088
S1130A4008F03BC0DADE71DE4C0154DFA2DE8C011B
S1130A502FE138EF4AE050E0BC01C40124DDD0931B
S1130A601501C0931401D0931701C09316016FE1CF
S1130A7078EF8EE091E028DED0931501C093140145
S1130A80B0921701A0921601C40132DED093150171
S1130A90C0931401D0921701C09216016FE178EF50
S1130AA081E191E011DED0931501C0931401F0921D
S1130AB01701E0921601C8011BDE8FEF93EC29E0C9
S1130AC0815090402040E1F700C00000B5CF50585D
S1130AD0BB27AA270ED048C139D130F03ED120F02F
S1130AE031F49F3F11F41EF42EC10EF4E095E7FBA0
S1130AF024C1E92F4AD180F3BA1762077307840728
S1130B00950718F071F49EF562C10EF4E0950B2E72
S1130B10BA2FA02D0B01B90190010C01CA01A0014B
S1130B201124FF27591B99F0593F50F4503E68F1A6
S1130B301A16F040A22F232F342F4427585FF3CFE7
S1130B40469537952795A795F0405395C9F77EF4B8
S1130B501F16BA0B620B730B840BBAF09150A1F001
S1130B60FF0FBB1F661F771F881FC2F70EC0BA0F87
S1130B70621F731F841F48F4879577956795B7950F
S1130B80F7959E3F08F0B3CF9395880F08F0992707
S1130B90EE0F9795879508950CD0E6C0DED040F00F
S1130BA0D5D030F021F45F3F19F0C7C0511110C106
S1130BB0CAC0EBD098F39923C9F35523B1F3951B1D
S1130BC0550BBB27AA2762177307840738F09F5F6A
S1130BD05F4F220F331F441FAA1FA9F333D00E2ED9
S1130BE03AF0E0E830D091505040E695001CCAF746
S1130BF029D0FE2F27D0660F771F881FBB1F26170B
S1130C0037074807AB07B0E809F0BB0B802DBF01DD
S1130C10FF2793585F4F2AF09E3F510568F08DC01F
S1130C20D7C05F3FECF3983EDCF3869577956795E4
S1130C30B795F7959F5FC9F7880F911D969587958E
S1130C4097F90895E1E0660F771F881FBB1F6217AD
S1130C5073078407BA0720F0621B730B840BBA0B6B
S1130C60EE1F88F7E095089598D088F09F5790F08C
S1130C70B92F9927B751A0F0D1F0660F771F881FBD
S1130C80991F1AF0BA95C9F712C0B13081F09FD0FC
S1130C90B1E008959CC0672F782F8827B85F39F09A
S1130CA0B93FCCF3869577956795B395D9F73EF41C
S1130CB090958095709561957F4F8F4F9F4F0895C4
S1130CC0E89409C097FB3EF49095809570956195E2
S1130CD07F4F8F4F9F4F9923A9F0F92F96E9BB2798
S1130CE09395F695879577956795B795F111F8CF14
S1130CF0FAF4BB0F11F460FF1BC06F5F7F4F8F4F7F
S1130D009F4F16C0882311F096E911C0772321F074
S1130D109EE8872F762F05C0662371F096E8862F0C
S1130D2070E060E02AF09A95660F771F881FDAF763
S1130D30880F9695879597F9089597F99F6780E8A6
S1130D4070E060E008959FEF80EC089500240A9419
S1130D501616170618060906089500240A94121692
S1130D601306140605060895092E0394000C11F4C5
S1130D70882352F0BB0F40F4BF2B11F460FF04C072
S1130D806F5F7F4F8F4F9F4F089557FD9058440FCB
S1130D90551F59F05F3F71F04795880F97FB991FD6
S1130DA061F09F3F79F08795089512161306140693
S1130DB0551FF2CF4695F1DF08C016161706180620
S1130DC0991FF1CF86957105610508940895E894FB
S1130DD0BB2766277727CB0197F908950BD0C4CF9B
S1130DE0B5DF28F0BADF18F0952309F0A6CFABCF12
S1130DF01124EECFCADFA0F3959FD1F3950F50E0F5
S1130E00551F629FF001729FBB27F00DB11D639FB8
S1130E10AA27F00DB11DAA1F649F6627B00DA11D5E
S1130E20661F829F2227B00DA11D621F739FB00D04
S1130E30A11D621F839FA00D611D221F749F332774
S1130E40A00D611D231F849F600D211D822F762F0D
S1130E506A2F11249F5750408AF0E1F088234AF00A
S1130E60EE0FFF1FBB1F661F771F881F9150504056
S1130E70A9F79E3F510570F060CFAACF5F3FECF316
S1130E80983EDCF3869577956795B795F795E79542
S1130E909F5FC1F7FE2B880F911D9695879597F953
S1130EA00895DB018F939F931AD0BF91AF91A29FB6
S1130EB0800D911DA39F900DB29F900D1124089554
S1130EC0A29FB001B39FC001A39F700D811D112487
S1130ED0911DB29F700D811D1124911D0895F0DFA5
S1130EE0A59F900DB49F900DA49F800D911D11247A
S1130EF00895BB274A3031F4992322F4BDE290953A
S1130F0081959F4F01C0BB27FB015527AA27880F56
S1130F10991FAA1FA41710F0A41B83955051B9F769
S1130F20A05DAA3308F0A95DA193009779F7B111E8
S1130F30B1931192CB0100C0DC01FC01672F7191C8
S1130F407723E1F7329704C07C916D9370836291AB
S10F0F50AE17BF07C8F30895F894FFCF54
S1130F5C21646C726F57202C6F6C6C654800707830
S1070F6C0070790094
S9030000FC
