:1000000035C1000051C100004FC100004DC10000CA
:100010004BC1000049C1000047C1000045C10000BC
:1000200043C1000041C100003FC100003DC10000CC
:100030003BC1000039C1000037C1000035C10000DC
:1000400033C1000031C100002FC100002DC10000EC
:100050002BC1000029C1000027C1000025C10000FC
:1000600023C1000021C100001FC100001DC100000C
:100070001BC1000019C1000017C1000015C100001C
:1000800013C1000011C100000FC1000000000000FA
:100090000000005F00000007000700147F147F14B9
:1000A000122A7F2A246264081323502255493600FD
:1000B000050300000041221C00001C224100082A08
:1000C0001C2A0808083E08080000305000080808EC
:1000D0000808006060000002040810203E454951F5
:1000E0003E00407F42004649516142314B4541212B
:1000F000107F12141839454545273049494A3C03B9
:100100000509710136494949361E29494906003613
:100110003600000000365600412214080014141462
:100120001414000814224106095101023E41794984
:10013000327E1111117E364949497F224141413EAB
:100140001C2241417F414949497F010109097F3210
:100150005141413E7F0808087F00417F4100013F37
:10016000414020412214087F404040407F7F0204EC
:10017000027F7F1008047F3E4141413E0609090984
:100180007F5E2151413E462919097F31494949463F
:1001900001017F01013F4040403F1F2040201F7F61
:1001A0002018207F63140814630304780403434574
:1001B00049516141417F0000201008040200007F86
:1001C0004141040201020440404040400004020159
:1001D000007854545420384444487F2044444438E0
:1001E0007F4444483818545454380201097E083C6E
:1001F00054541408780404087F00407D4400003DF6
:100200004440204428107F0000407F4100780418BB
:10021000047C780404087C384444443808141414DA
:100220007C7C18141408080404087C205454544896
:100230002040443F047C2040403C1C2040201C3C8B
:100240004030403C44281028443C5050500C444C12
:10025000546444004136080000007F000000083666
:100260004100081C2A080808082A1C0811241FBE7F
:10027000CFEFD0E4DEBFCDBF11E0A0E0B1E0E2EF10
:10028000F3E100E00BBF02C007900D92A83FB10759
:10029000D9F722E0A8EFB1E001C01D92A331B20767
:1002A000E1F72FD60C94F709ABCE8FEF84B917B8CE
:1002B000289A0895181619066CF420E030E0EFE94A
:1002C000FFE03197F1F700C000002F5F3F4F82172A
:1002D0009307A9F7089580E58CBD8DB581608DBD2C
:1002E00008958EBD0DB407FEFDCF8EB508952998F3
:1002F000F8DF299A0895CF93C82F892FF2DF8C2F2A
:10030000F0DFCF910895CF92DF92EF92FF92CF93DB
:10031000DF93D62FC72F69017A018CE2E8DFC11481
:10032000D104E104F10479F07C2F7EBD0DB407FE09
:10033000FDCFDEBD0DB407FEFDCF81E0C81AD108A8
:10034000E108F10891F7DF91CF91FF90EF90DF90F6
:10035000CF900895289881E090E0ACDF289A86E954
:1003600090E0A8CF0895F6DF81E1C1DF86E990E053
:10037000A1DF8AE3BCDF85E0B4DF89E2B8CF08956E
:10038000CF92DF92EF92FF920F931F93CF93DF9361
:100390006C018B017A01E9018AE2A9DFC601ABDFBA
:1003A000C701A9DF8BE2A3DFC801A5DFCE01A3DF70
:1003B000DF91CF911F910F91FF90EF90DF90CF9041
:1003C00008952FE331E04FEE50E060E070E080E010
:1003D00090E0D6DF8CE28BDF80E098E5A2E0B0E031
:1003E0001EBC0DB407FEFDCF0197A109B109C1F7ED
:1003F0000895AF92BF92CF92DF92EF92FF920F9348
:100400001F93CF93DF935C016B017A01E901B8DFA1
:10041000EA18FB088FEFE81AF80ACC19DD092196D3
:10042000EC9E9001ED9E300DFC9E300D112440E0BD
:1004300050E0B801110F880B990B65DFDF91CF9168
:100440001F910F91FF90EF90DF90CF90BF90AF90F2
:1004500008958091090290910A02019790930A02EF
:100460008093090288976CF080910B0290910C02A6
:10047000019690930C0280930B0210920A02109244
:10048000090280910B0290910C02889724F010923F
:100490000C0210920B020895CF93843B910541F01A
:1004A0008E3021E0920731F08A35910529F406C09B
:1004B000C0EC05C0C0EA03C0C0E001C0C0E686E3EE
:1004C00016DF8C2F0EDFCF9108958F929F92AF92FF
:1004D000BF92CF92DF92EF92FF920F931F93CF9331
:1004E000DF93E82ECB01BA01A22EB32E9A012A5F28
:1004F0003F4FAC014C5F5F4F43DF8CE2F8DE8E2D47
:1005000090E07C01EE0CFF1CEE0CFF1CE80EF91EC7
:100510000F2EF7E0CF2ED12CF02D01E010E080EA75
:10052000E81AF10888248A9499249A941BC0F70148
:10053000EC0FFD1FE457FF4FE491F0E0E023F123BF
:10054000EF2B19F08A2D9B2D02C0882D992DD3DE1B
:100550002196C530D10559F7000F111F81E0C81A47
:10056000D10819F0C0E0D0E0E2CFDF91CF911F9128
:100570000F91FF90EF90DF90CF90BF90AF909F9042
:100580008F9008959B0140910B0250910C02440FF3
:10059000551F440F551F440F551FE0910902F0915C
:1005A0000A02BF01660F771FE60FF71FBF01660F34
:1005B000771F8BDF4ECF08950F931F93CF93DF9359
:1005C000EC018881882339F08B012196B801DADFAC
:1005D00089918111FBCFDF91CF911F910F910895E8
:1005E000CF93DF93CDB7DEB728970FB6F894DEBF71
:1005F0000FBECDBF4AE0BE016F5F7F4FC5D660E042
:1006000070E0CE010196D8DF28960FB6F894DEBFD1
:100610000FBECDBFDF91CF910895813081F0E1EC25
:10062000F0E0808188618083E2ECF0E08081866088
:10063000808383E38093C4001092C5000895E9ECA1
:10064000F0E0808188618083EAECF0E08081866060
:10065000808383E38093CC001092CD000895813095
:1006600029F48091C800882374F008958091C00017
:1006700088238CF4A6ECB0E0E0ECF0E08C91808173
:100680008823E4F30895AEECB0E0E8ECF0E08C9160
:1006900080818823E4F30895813041F0E0ECF0E0BC
:1006A00080818823ECF78091C6000895E8ECF0E0A3
:1006B00080818823ECF78091CE00089580E48093B8
:1006C0007C0087E880937A000895ECE7F0E0908161
:1006D000987F8770892B8083EAE7F0E080818064CF
:1006E0008083808186FDFDCFEAE7F0E08081806134
:1006F00080838091780090917900089580910D0217
:10070000882319F0813029F0089581E080930D024B
:10071000089584E0DADFBC0180E090E035D526E67C
:1007200036E648E053E49CD403D570930602609308
:10073000050281E080930D020895809110028823C4
:1007400019F0813029F0089581E080931002089516
:1007500085E0BBDFBC0180E090E016D52DEC3CECE1
:1007600044E752E47DD4E4D470930402609303021E
:1007700081E08093100208950F931F93CF93DF932E
:1007800080911202813009F42CC120F0823009F4EA
:100790007DC1CBC18091070290910802892B09F09D
:1007A000E1C088E290E090930A0280930902C5E0DC
:1007B000D0E0D0930C02C0930B028091050290917F
:1007C00006020EDF86E290E090930A02809309020F
:1007D000D0930C02C0930B0260EE77E082E091E0D0
:1007E000EBDE80910502909106028335910590F031
:1007F00084E290E090930A028093090285E090E001
:1008000090930C0280930B026FE170E084E091E022
:10081000D3DE27C0885491090B9790F484E290E0CE
:1008200090930A028093090285E090E090930C0275
:1008300080930B0260EE77E082E291E0BDDE11C0B2
:1008400084E290E090930A028093090285E090E0B0
:1008500090930C0280930B026FE170E080E491E0D2
:10086000ABDE8091000190910101969587952091D2
:100870000302309104022817390790F088E290E0D3
:1008800090930A02809309028DE090E090930C020D
:1008900080930B026FE170E08EE591E08DDE11C078
:1008A00088E290E090930A02809309028DE090E044
:1008B00090930C0280930B0260EE77E08BE791E05F
:1008C0007BDE8091F9019091FA018436910508F060
:1008D00046C028E230E030930A0220930902C5E1C5
:1008E000D0E0D0930C02C0930B027ADE86E290E057
:1008F00090930A0280930902D0930C02C0930B02DA
:1009000060EE77E088E991E057DE8091F9019091FF
:10091000FA018135910590F084E290E090930A020B
:100920008093090285E190E090930C0280930B0282
:100930006FE170E08AE991E03FDE11C084E290E06F
:1009400090930A028093090285E190E090930C0253
:1009500080930B0260EE77E086EB91E02DDE109243
:100960001202E5C0C8E2D0E0D0930A02C0930902A7
:1009700085E090E090930C0280930B026FEF7FEF85
:1009800086EF91E019DED0930A02C09309028DE050
:1009900090E090930C0280930B026FEF7FEF86EF55
:1009A00091E00ADED0930A02C093090285E190E04B
:1009B00090930C0280930B026FEF7FEF86EF91E034
:1009C000FBDDFFDC0FEF1FEF2AE233E040E451E0F4
:1009D00060E070E080E090E00CDD81E08093120246
:1009E000A6C08091010290910202019690930202AA
:1009F000809301020A9704F584E290E090930A0242
:100A0000809309028CE090E090930C0280930B029B
:100A10006FE170E082ED91E0CFDD8EEF88B92FEFCE
:100A200083ED90E3215080409040E1F700C000004A
:100A300082E0809312027BC010920802109207029B
:100A4000109202021092010281E088B90FE110E0D9
:100A50002CE330E040E350E06EE170E082E190E0B2
:100A6000C8DC28E730E040E350E06AE570E082E16E
:100A700090E0BFDC2EEB30E040E350E060EA70E055
:100A800082E190E0B6DC1092120251C08091010226
:100A9000909102020A97FCF484E290E090930A029B
:100AA000809309028CE090E090930C0280930B02FB
:100AB0006FE170E085EE91E07FDD18B82FEF83EDF8
:100AC00090E3215080409040E1F700C0000081E0B9
:100AD000809312022CC01092020210920102109216
:100AE00008021092070281E088B90FE110E02CE3C0
:100AF00030E040E350E06EE170E082E190E079DCCC
:100B000028E730E040E350E06AE570E082E190E001
:100B100070DC2EEB30E040E350E060EA70E082E110
:100B200090E067DC1092120202C010921202DF9174
:100B3000CF911F910F91089586B191E0282F2170D8
:100B400080FD90E09093F80180910F0281110AC01E
:100B5000211106C081E090E0909308028093070283
:100B600010920F02089580910E0281110DC077DD61
:100B7000E0ECF0E080818823ECF780E08DDD90E010
:100B80009093FA018093F901089581B1897F81B929
:100B900082B1897F82B981B1896081B91398109A35
:100BA000EAE7F0E08081876C808381E680937C00B7
:100BB0008FE193E00197F1F700C0000020917800E9
:100BC0008091790090E0982F8827820F911D0097DF
:100BD00089F080549F419C0136952795A5E7BAED91
:100BE000C4D30024880F991F001C880F991F001C74
:100BF000892F902D089581B1867F81B982B1867F3A
:100C000082B981B1866081B91198129A87EC80937C
:100C10007A0080E680937C008FE193E00197F1F702
:100C200000C00000209178008091790090E0982F1A
:100C30008827820F911D009771F09C0120543F413D
:100C4000A3E8BDE292D396958795929582958F7091
:100C500089279F7089270895AF92BF92CF92DF9224
:100C6000EF92FF921F93CF93DF930A9A12980B9AF9
:100C7000139A81B18C7F81B982B18C7F82B94CE7A4
:100C800050E081E4DA018C93EAE7F0E0808180644F
:100C90008083CFE1D3E02197F1F700C0000028E77F
:100CA00030E0D901CC91AC2EB12CA9E7B0E01C9179
:100CB00080E4EA018883808180648083EFE1F3E04F
:100CC0003197F1F700C00000E90188816C9170E074
:100CD000762F6627680F711D072E000C880B990B65
:100CE00055D26B017C01612F70E0762F6627E501FC
:100CF000C60FD71FBE01DD0F880B990B47D29B0192
:100D0000AC01C701B601ACD120E030E040E85FE3C0
:100D100042D16B017C0139DFBC0180E090E034D22C
:100D2000A7019601BFD220E030E045EA53E4BAD2F1
:100D300020E030E040E85AE3B5D2FAD1CB01DF91B0
:100D4000CF911F91FF90EF90DF90CF90BF90AF9029
:100D50000895AF92BF92CF92DF92EF92FF921F93CE
:100D6000CF93DF930A9A12980B9A139A81B18C7FD2
:100D700081B982B18C7F82B94CE750E081E4DA011D
:100D80008C93EAE7F0E0808180648083CFE1D3E058
:100D90002197F1F700C0000028E730E0D901CC919D
:100DA000AC2EB12CA9E7B0E01C9180E4EA01888365
:100DB000808180648083EFE1F3E03197F1F700C038
:100DC0000000E90188816C9170E0762F6627680F3A
:100DD000711D072E000C880B990BD8D16B017C017B
:100DE000612F70E0762F6627E501C60FD71FBE0181
:100DF000DD0F880B990BCAD19B01AC01C701B6016D
:100E00002FD120E030E040E85FE3C5D06B017C01EA
:100E1000F2DEBC0180E090E0B7D1A701960142D29A
:100E200020E030E045EA53E43DD220E030E040E805
:100E30005AE338D27DD1CB01DF91CF911F91FF9042
:100E4000EF90DF90CF90BF90AF9008950F931F93D6
:100E500080911102811152C0FFDE9093FC018093BA
:100E6000FB0193DE909300028093FF0172DF909369
:100E7000FC018093FB01BFDE9093FE018093FD0196
:100E80002091FF01309100022B50310921333105AF
:100E900098F59C012F5131092732310560F400EE9D
:100EA00017E02CE330E040E350E06EE170E082E1D7
:100EB00090E09FDA21C09C012F563109273231057D
:100EC00060F400EE17E028E730E040E350E06AE528
:100ED00070E082E190E08DDA0FC0855B9109C197E7
:100EE00058F400EE17E02EEB30E040E350E060EA0B
:100EF00070E082E190E07DDA109211021F910F9173
:100F00000895D3D9E8D92FDA5CDA8EE091E0C4DA1B
:100F10000FEF1FEF2AE233E040E451E060E070E0C1
:100F200080E090E066DA0FE110E02CE330E040E38F
:100F300050E06EE170E082E190E05BDA28E730E0BB
:100F400040E350E06AE570E082E190E052DA2EEB97
:100F500030E040E350E060EA70E082E190E049DA9E
:100F60008EEF87B981E088B911B88FEF82B91092FE
:100F70000D021092100210920F02109212021092A3
:100F80000E029CDB80E049DBB9DBD7DBF5DBD4DD8F
:100F90005DDFE9DDF9CF5058BB27AA270ED048C145
:100FA00039D130F03ED120F031F49F3F11F41EF4DE
:100FB0002EC10EF4E095E7FB24C1E92F4AD180F35E
:100FC000BA17620773078407950718F071F49EF546
:100FD00062C10EF4E0950B2EBA2FA02D0B01B901C2
:100FE00090010C01CA01A0011124FF27591B99F09F
:100FF000593F50F4503E68F11A16F040A22F232FAB
:10100000342F4427585FF3CF469537952795A795FA
:10101000F0405395C9F77EF41F16BA0B620B730BA1
:10102000840BBAF09150A1F0FF0FBB1F661F771F12
:10103000881FC2F70EC0BA0F621F731F841F48F4C7
:10104000879577956795B795F7959E3F08F0B3CF4D
:101050009395880F08F09927EE0F97958795089537
:101060000CD0E6C0DED040F0D5D030F021F45F3FA8
:1010700019F0C7C0511110C1CAC0EBD098F3992321
:10108000C9F35523B1F3951B550BBB27AA2762174C
:101090007307840738F09F5F5F4F220F331F441F91
:1010A000AA1FA9F333D00E2E3AF0E0E830D09150C9
:1010B0005040E695001CCAF729D0FE2F27D0660FB6
:1010C000771F881FBB1F261737074807AB07B0E8F5
:1010D00009F0BB0B802DBF01FF2793585F4F2AF00B
:1010E0009E3F510568F08DC0D7C05F3FECF3983E3E
:1010F000DCF3869577956795B795F7959F5FC9F768
:10110000880F911D9695879597F90895E1E0660FF0
:10111000771F881FBB1F621773078407BA0720F069
:10112000621B730B840BBA0BEE1F88F7E0950895D2
:1011300098D088F09F5790F0B92F9927B751A0F019
:10114000D1F0660F771F881F991F1AF0BA95C9F75B
:1011500012C0B13081F09FD0B1E008959CC0672FDC
:10116000782F8827B85F39F0B93FCCF3869577950B
:101170006795B395D9F73EF49095809570956195F4
:101180007F4F8F4F9F4F0895E89409C097FB3EF41F
:1011900090958095709561957F4F8F4F9F4F9923C4
:1011A000A9F0F92F96E9BB279395F6958795779542
:1011B0006795B795F111F8CFFAF4BB0F11F460FF02
:1011C0001BC06F5F7F4F8F4F9F4F16C0882311F05A
:1011D00096E911C0772321F09EE8872F762F05C06E
:1011E000662371F096E8862F70E060E02AF09A9509
:1011F000660F771F881FDAF7880F9695879597F9FE
:10120000089597F99F6780E870E060E008959FEF88
:1012100080EC089500240A9416161706180609068D
:10122000089500240A94121613061406050608955C
:10123000092E0394000C11F4882352F0BB0F40F4E4
:10124000BF2B11F460FF04C06F5F7F4F8F4F9F4F24
:10125000089557FD9058440F551F59F05F3F71F0A6
:101260004795880F97FB991F61F09F3F79F087950D
:101270000895121613061406551FF2CF4695F1DF96
:1012800008C0161617061806991FF1CF8695710526
:10129000610508940895E894BB2766277727CB015A
:1012A00097F908950BD0C4CFB5DF28F0BADF18F056
:1012B000952309F0A6CFABCF1124EECFCADFA0F360
:1012C000959FD1F3950F50E0551F629FF001729FDB
:1012D000BB27F00DB11D639FAA27F00DB11DAA1FFA
:1012E000649F6627B00DA11D661F829F2227B00D47
:1012F000A11D621F739FB00DA11D621F839FA00DD2
:10130000611D221F749F3327A00D611D231F849F21
:10131000600D211D822F762F6A2F11249F57504078
:101320008AF0E1F088234AF0EE0FFF1FBB1F661F13
:10133000771F881F91505040A9F79E3F510570F0CC
:1013400060CFAACF5F3FECF3983EDCF386957795AC
:101350006795B795F795E7959F5FC1F7FE2B880FC7
:10136000911D9695879597F90895A29FB001B39F17
:10137000C001A39F700D811D1124911DB29F700D9E
:10138000811D1124911D0895BB274A3031F4992302
:1013900022F4BDE2909581959F4F01C0BB27FB01D0
:1013A0005527AA27880F991FAA1FA41710F0A41B5E
:1013B00083955051B9F7A05DAA3308F0A95DA193B8
:1013C000009779F7B111B1931192CB0100C0DC0104
:1013D000FC01672F71917723E1F7329704C07C916C
:1013E0006D9370836291AE17BF07C8F30895F894A8
:0213F000FFCF2D
:1013F2009600460041726520796F75207374617999
:10140200696E672068796472617465643F20202088
:10141200200049742773206E696365206F757473A9
:101422006964652020202020202020202020200008
:1014320044696420796F75207765617220736F6DDE
:10144200657468696E67207761726D3F2000446938
:101452006420796F75207765617220796F757220CB
:1014620073756E73637265656E3F004974277320EE
:10147200636C6F7564792F6461726B206F7574731E
:101482006964652020202000250044696420796F6A
:10149200752074616B6520796F757220756D62724B
:1014A200656C6C613F004E6F206E65656420666FEF
:1014B2007220756D6272656C6C6120202020202084
:1014C20020004556414355415445204255494C441C
:1014D200494E4721002020202020202020202020AB
:0814E200202020202020200022
:00000001FF
