S01300005465737453656E736F72732E7372656384
S113000035C1000050C100004EC100004CC10000C9
S11300104AC1000048C1000046C1000044C10000BC
S113002042C1000040C100003EC100003CC10000CC
S11300303AC1000038C1000036C1000034C10000DC
S113004032C1000030C100002EC100002CC10000EC
S11300502AC1000028C1000026C1000024C10000FC
S113006022C1000020C100001EC100001CC100000C
S11300701AC1000018C1000016C1000014C100001C
S113008012C1000010C100000EC1000000000000F9
S11300900000005F00000007000700147F147F14B5
S11300A0122A7F2A246264081323502255493600F9
S11300B0050300000041221C00001C224100082A04
S11300C01C2A0808083E08080000305000080808E8
S11300D00808006060000002040810203E454951F1
S11300E03E00407F42004649516142314B45412127
S11300F0107F12141839454545273049494A3C03B5
S11301000509710136494949361E2949490600360F
S1130110360000000036560041221408001414145E
S11301201414000814224106095101023E41794980
S1130130327E1111117E364949497F224141413EA7
S11301401C2241417F414949497F010109097F320C
S11301505141413E7F0808087F00417F4100013F33
S1130160414020412214087F404040407F7F0204E8
S1130170027F7F1008047F3E4141413E0609090980
S11301807F5E2151413E462919097F31494949463B
S113019001017F01013F4040403F1F2040201F7F5D
S11301A02018207F63140814630304780403434570
S11301B049516141417F0000201008040200007F82
S11301C04141040201020440404040400004020155
S11301D0007854545420384444487F2044444438DC
S11301E07F4444483818545454380201097E083C6A
S11301F054541408780404087F00407D4400003DF2
S11302004440204428107F0000407F4100780418B7
S1130210047C780404087C384444443808141414D6
S11302207C7C18141408080404087C205454544892
S11302302040443F047C2040403C1C2040201C3C87
S11302404030403C44281028443C5050500C444C0E
S1130250546444004136080000007F000000083662
S11302604100081C2A080808082A1C0811241FBE7B
S1130270CFEFD0E4DEBFCDBF11E0A0E0B1E0E8EE07
S1130280F0E100E00BBF02C007900D92AC3FB10754
S1130290D9F722E0ACEFB1E001C01D92A331B2075F
S11302A0E1F7DAD41FC7ACCE8FEF84B917B8289A18
S11302B00895181619066CF420E030E0EFE9FFE029
S11302C03197F1F700C000002F5F3F4F821793076B
S11302D0A9F7089580E58CBD8DB581608DBD089525
S11302E08EBD0DB407FEFDCF8EB508952998F8DFB5
S11302F0299A0895CF93C82F892FF2DF8C2FF0DF2E
S1130300CF910895289881E090E0D3DF289A86E978
S113031090E0CFCF0895F6DF81E1E8DF86E990E051
S1130320C8DF8AE3E3DF85E0DBDF89E2DFCF08951E
S1130330CF92DF92EF92FF920F931F93CF93DF93AD
S11303406C018B017A01E9018AE2D0DFC601D2DFB8
S1130350C701D0DF8BE2CADFC801CCDFCE01CADF20
S1130360DF91CF911F910F91FF90EF90DF90CF908D
S113037008952FE331E04FEE50E060E070E080E05C
S113038090E0D6DF8CE2B2DF80E098E5A2E0B0E056
S11303901EBC0DB407FEFDCF0197A109B109C1F739
S11303A008958091090290910A02019790930A029C
S11303B08093090288976CF080910B0290910C0253
S11303C0019690930C0280930B0210920A021092F1
S11303D0090280910B0290910C02889724F01092EC
S11303E00C0210920B020895CF93843B910541F0C7
S11303F08E3021E0920731F08A35910529F406C048
S1130400C0EC05C0C0EA03C0C0E001C0C0E686E39A
S11304106DDF8C2F65DFCF9108958F929F92AF92FD
S1130420BF92CF92DF92EF92FF920F931F93CF93DD
S1130430DF93E82ECB01BA01A22EB32E9A012A5FD4
S11304403F4FAC014C5F5F4F73DF8CE24FDF8E2D6B
S113045090E07C01EE0CFF1CEE0CFF1CE80EF91E74
S11304600F2EF7E0CF2ED12CF02D01E010E080EA22
S1130470E81AF108812C912C1BC0F701EC0FFD1F29
S1130480E457FF4FE491F0E0E023F123EF2B19F060
S11304908A2D9B2D02C0882D992D2CDF2196C530E5
S11304A0D10559F7000F111F81E0C81AD10819F0BE
S11304B0C0E0D0E0E2CFDF91CF911F910F91FF9088
S11304C0EF90DF90CF90BF90AF909F908F90089562
S11304D09B0140910B0250910C02440F551F440F95
S11304E0551F440F551FE0910902F0910A02BF0104
S11304F0660F771FE60FF71FBF01660F771F8DDFAB
S113050050CF08950F931F93CF93DF93EC0188810D
S1130510882339F08B012196B801DADF89918111A2
S1130520FBCFDF91CF911F910F910895CF93DF936C
S1130530CDB7DEB728970FB6F894DEBF0FBECDBF98
S11305404AE0BE016F5F7F4F9AD56FEF7FEFCE0118
S11305500196D8DF28960FB6F894DEBF0FBECDBF44
S1130560DF91CF91089580E480937C0087E88093A5
S11305707A000895ECE7F0E09081987F8770892BEA
S11305808083EAE7F0E0808180648083808186FD57
S1130590FDCFEAE7F0E0808180618083809178007C
S11305A090917900089580910E02882319F081308A
S11305B029F0089581E080930E02089584E0DADF43
S11305C0BC0180E090E05BD426E636E648E053E4E4
S11305D0C2D329D4709306026093050281E080930C
S11305E00E02089580910D02882319F0813029F0BC
S11305F0089581E080930D02089586E0BBDFBC017D
S113060080E090E03CD420E030E64CE354E4A3D313
S11306100AD47093FE016093FD0181E080930D0282
S1130620089580911002882319F0813029F00895EB
S113063081E080931002089585E09CDFBC0180E096
S113064090E01DD42DEC3CEC44E752E484D3EBD38E
S1130650709304026093030281E080931002089572
S1130660CF93DF9380911202813009F4EEC020F021
S1130670823009F420C14FC1809107029091080291
S1130680892B09F0DDC088E290E090930A02809300
S11306900902C5E0D0E0D0930C02C0930B02809114
S11306A005029091060242DF86E290E090930A02EE
S11306B080930902D0930C02C0930B0260EE77E0A2
S11306C086E091E01FDF8091050290910602843557
S11306D0910590F084E290E090930A0280930902DD
S11306E085E090E090930C0280930B026FE170E040
S11306F088E091E007DF27C0885491090C9790F4B3
S113070084E290E090930A028093090285E090E0ED
S113071090930C0280930B0260EE77E086E291E006
S1130720F1DE11C084E290E090930A028093090202
S113073085E090E090930C0280930B026FE170E0EF
S113074084E491E0DFDE80910401909105019695A7
S1130750879520910302309104022817390790F0FD
S113076088E290E090930A02809309028DE090E081
S113077090930C0280930B026FE170E082E691E0AB
S1130780C1DE11C088E290E090930A0280930902CE
S11307908DE090E090930C0280930B0260EE77E082
S11307A08FE791E0AFDE88E290E090930A028093B5
S11307B00902C5E1D0E0D0930C02C0930B028091F2
S11307C0FD019091FE01B2DE86E290E090930A0270
S11307D080930902D0930C02C0930B0260EE77E081
S11307E08CE991E08FDE8091FD019091FE018135CD
S11307F0910590F084E290E090930A0280930902BC
S113080085E190E090930C0280930B026FE170E01D
S11308108EE991E077DE11C084E290E090930A02C1
S11308208093090285E190E090930C0280930B027F
S113083060EE77E08AEB91E065DE109212026DC003
S113084098DD81E08093120268C08091010290914A
S11308500202019690930202809301020A9704F522
S113086084E290E090930A02809309028CE090E085
S113087090930C0280930B026FE170E086ED91E09F
S113088041DE8FEF88B92FEF83ED90E32150804054
S11308909040E1F700C0000082E0809312023DC066
S11308A010920802109207021092020210920102A2
S11308B01092120232C080910102909102020A97B2
S11308C0FCF484E290E090930A02809309028CE0A5
S11308D090E090930C0280930B026FE170E089EE3C
S11308E091E010DE18B82FEF83ED90E321508040A3
S11308F09040E1F700C0000081E0809312020DC037
S11309001092020210920102109208021092070241
S11309101092120202C010921202DF91CF91089538
S113092089B191E0282F217080FD90E09093FC0123
S113093080910F0281110AC0211106C081E090E06C
S1130940909308028093070210920F02089581B1D8
S1130950897F81B982B1897F82B981B1896081B986
S11309601398109AEAE7F0E08081876C808381E62F
S113097080937C008FE193E00197F1F700C00000C1
S1130980209178008091790090E0982F8827820F39
S1130990911D009789F080549F419C0136952795BD
S11309A0A5E7BAED5DD30024880F991F001C880FBA
S11309B0991F001C892F902D089581B1867F81B9DC
S11309C082B1867F82B981B1866081B91198129A09
S11309D087EC80937A0080E680937C008FE193E03B
S11309E00197F1F700C00000209178008091790010
S11309F090E0982F8827820F911D009771F09C0139
S1130A0020543F41A3E8BDE22BD396958795929558
S1130A1082958F7089279F7089270895AF92BF921E
S1130A20CF92DF92EF92FF921F93CF93DF930A9AB4
S1130A3012980B9A139A81B18C7F81B982B18C7F01
S1130A4082B94CE750E081E4DA018C93EAE7F0E004
S1130A50808180648083CFE1D3E02197F1F700C0E7
S1130A60000028E730E0D901CC91AC2EB12CA9E7E5
S1130A70B0E01C9180E4EA018883808180648083F3
S1130A80EFE1F3E03197F1F700C00000E90188815C
S1130A906C9170E0762F6627680F711D072E000C8D
S1130AA0880B990BEED16B017C01612F70E0762FDE
S1130AB06627E501C60FD71FBE01DD0F880B990B12
S1130AC0E0D19B01AC01C701B60145D120E030E083
S1130AD040E85FE3DBD06B017C0139DFBC0180E0DF
S1130AE090E0CDD1A701960158D220E030E045EA4C
S1130AF053E453D220E030E040E85AE34ED293D19D
S1130B00CB01DF91CF911F91FF90EF90DF90CF90B9
S1130B10BF90AF900895AF92BF92CF92DF92EF92C1
S1130B20FF921F93CF93DF930A9A12980B9A139A0A
S1130B3081B18C7F81B982B18C7F82B94CE750E05E
S1130B4081E4DA018C93EAE7F0E0808180648083B9
S1130B50CFE1D3E02197F1F700C0000028E730E0AF
S1130B60D901CC91AC2EB12CA9E7B0E01C9180E462
S1130B70EA018883808180648083EFE1F3E0319728
S1130B80F1F700C00000E90188816C9170E0762FD4
S1130B906627680F711D072E000C880B990B71D105
S1130BA06B017C01612F70E0762F6627E501C60F8B
S1130BB0D71FBE01DD0F880B990B63D19B01AC01DC
S1130BC0C701B601C8D020E030E040E85FE35ED062
S1130BD06B017C01F2DEBC0180E090E050D1A70102
S1130BE09601DBD120E030E045EA53E4D6D120E0A1
S1130BF030E040E85AE3D1D116D1CB01DF91CF9157
S1130C001F91FF90EF90DF90CF90BF90AF90089529
S1130C108091110281111FC001DF90930002809323
S1130C20FF010A978F3D9340A0F4F8DE90930002F1
S1130C308093FF018CDE90930301809302016BDFAC
S1130C40909300028093FF01B8DE9093010180939A
S1130C50000110921102089527DB3CDB5CDB89DB89
S1130C608EE091E0C1DB1AB88FEF8BB987B918B861
S1130C7011B882B910920E021092100274DC93DC47
S1130C80D0DCEEDC4DDEAEDCC3DFF9CF5058BB2741
S1130C90AA270ED048C139D130F03ED120F031F42A
S1130CA09F3F11F41EF42EC10EF4E095E7FB24C11E
S1130CB0E92F4AD180F3BA176207730784079507AF
S1130CC018F071F49EF562C10EF4E0950B2EBA2F64
S1130CD0A02D0B01B90190010C01CA01A00111243E
S1130CE0FF27591B99F0593F50F4503E68F11A16EA
S1130CF0F040A22F232F342F4427585FF3CF46957B
S1130D0037952795A795F0405395C9F77EF41F169C
S1130D10BA0B620B730B840BBAF09150A1F0FF0F66
S1130D20BB1F661F771F881FC2F70EC0BA0F621F52
S1130D30731F841F48F4879577956795B795F79542
S1130D409E3F08F0B3CF9395880F08F09927EE0FD4
S1130D509795879508950CD0E6C0DED040F0D5D0A5
S1130D6030F021F45F3F19F0C7C0511110C1CAC05F
S1130D70EBD098F39923C9F35523B1F3951B550B85
S1130D80BB27AA2762177307840738F09F5F5F4F5A
S1130D90220F331F441FAA1FA9F333D00E2E3AF09B
S1130DA0E0E830D091505040E695001CCAF729D0B5
S1130DB0FE2F27D0660F771F881FBB1F2617370704
S1130DC04807AB07B0E809F0BB0B802DBF01FF2734
S1130DD093585F4F2AF09E3F510568F08DC0D7C0ED
S1130DE05F3FECF3983EDCF3869577956795B7956E
S1130DF0F7959F5FC9F7880F911D9695879597F989
S1130E000895E1E0660F771F881FBB1F6217730701
S1130E108407BA0720F0621B730B840BBA0BEE1F16
S1130E2088F7E095089598D088F09F5790F0B92FEF
S1130E309927B751A0F0D1F0660F771F881F991F2B
S1130E401AF0BA95C9F712C0B13081F09FD0B1E061
S1130E5008959CC0672F782F8827B85F39F0B93F71
S1130E60CCF3869577956795B395D9F73EF490952D
S1130E708095709561957F4F8F4F9F4F0895E894AB
S1130E8009C097FB3EF490958095709561957F4FCE
S1130E908F4F9F4F9923A9F0F92F96E9BB2793957C
S1130EA0F695879577956795B795F111F8CFFAF48C
S1130EB0BB0F11F460FF1BC06F5F7F4F8F4F9F4FBD
S1130EC016C0882311F096E911C0772321F09EE81B
S1130ED0872F762F05C0662371F096E8862F70E081
S1130EE060E02AF09A95660F771F881FDAF7880F5B
S1130EF09695879597F9089597F99F6780E870E02C
S1130F0060E008959FEF80EC089500240A9416167B
S1130F10170618060906089500240A9412161306E3
S1130F20140605060895092E0394000C11F4882371
S1130F3052F0BB0F40F4BF2B11F460FF04C06F5F8D
S1130F407F4F8F4F9F4F089557FD9058440F551F63
S1130F5059F05F3F71F04795880F97FB991F61F037
S1130F609F3F79F087950895121613061406551FAE
S1130F70F2CF4695F1DF08C0161617061806991F1A
S1130F80F1CF86957105610508940895E894BB270F
S1130F9066277727CB0197F908950BD0C4CFB5DF27
S1130FA028F0BADF18F0952309F0A6CFABCF1124AF
S1130FB0EECFCADFA0F3959FD1F3950F50E0551FF4
S1130FC0629FF001729FBB27F00DB11D639FAA279A
S1130FD0F00DB11DAA1F649F6627B00DA11D661FE9
S1130FE0829F2227B00DA11D621F739FB00DA11D0A
S1130FF0621F839FA00D611D221F749F3327A00DC4
S1131000611D231F849F600D211D822F762F6A2F5F
S113101011249F5750408AF0E1F088234AF0EE0FE4
S1131020FF1FBB1F661F771F881F91505040A9F7F1
S11310309E3F510570F060CFAACF5F3FECF3983E1E
S1131040DCF3869577956795B795F795E7959F5F58
S1131050C1F7FE2B880F911D9695879597F90895F2
S1131060A29FB001B39FC001A39F700D811D1124E5
S1131070911DB29F700D811D1124911D0895BB27F0
S11310804A3031F4992322F4BDE2909581959F4F23
S113109001C0BB27FB015527AA27880F991FAA1F48
S11310A0A41710F0A41B83955051B9F7A05DAA337F
S11310B008F0A95DA193009779F7B111B19311924A
S11310C0CB0100C0DC01FC01672F71917723E1F7AC
S11310D0329704C07C916D9370836291AE17BF0701
S10B10E0C8F30895F894FFCF52
S11310E8010001009600460041726520796F752061
S11310F873746179696E6720687964726174656470
S11311083F202020200049742773206E69636520DE
S11311186F757473696465202020202020202020A6
S11311282020200044696420796F752077656172F6
S113113820736F6D657468696E67207761726D3F9F
S1131148200044696420796F75207765617220797D
S11311586F75722073756E73637265656E3F0049AF
S113116874277320636C6F7564792F6461726B20C4
S11311786F75747369646520202020002500446914
S11311886420796F752074616B6520796F7572209E
S1131198756D6272656C6C613F004E6F206E65659B
S11311A86420666F7220756D6272656C6C612020B4
S11311B820202020200045564143554154452042D3
S11311C855494C44494E4721002020202020202006
S10F11D8202020202020202020202000A7
S9030000FC
